:020000040000FA
:100000000C9402080C942A080C942A080C942A08D0
:100010000C942A080C942A080C942A080C9448245E
:100020000C942A080C942A080C942A080C942A0888
:100030000C942A080C942A080C942A080C942A0878
:100040000C94FE230C942A080C942A080C942A0879
:100050000C942A080C942A080C942A080C942A0858
:100060000C947A240C942A0807634236B79BD8A7CD
:100070001A39685618AEBAAB558C1D3CB7CC5763CD
:10008000BD6DEDFD753EF6177231BF000000803F7B
:1000900005A84CCDB2D44EB93836A9020C50B9914E
:1000A0008688083CA6AAAA2ABE000000803F524FBC
:1000B0004D00445542005A4147004D4357004245C8
:1000C000520053454F00535944005753480042458E
:1000D00049004C41580053475000484B4700544B8F
:1000E0005900504152004C4F4E004E59430053614D
:1000F0007400467269005468750057656400547551
:1001000065004D6F6E0053756E0000000B0F0D0102
:10011000F11500030E0D09F11B000B0F0D01F1305D
:10012000000A0F0D02F143000B0E0D01F157000BF9
:100130000F0D01F16C000B0F0D01F181000B0E0D85
:1001400001F195000B0F0D01F1AA000B0F0D01F14C
:10015000BF0002080401F53F980B0560EC3D85B037
:10016000100280DA1B43686C0D01BFE0096D92DB61
:100170006D803F80080100600C0180119880180399
:1001800000600C01003FE07F00200806018060094C
:100190009A018060180601806FF000180B01606CF6
:1001A0000D81B0119A00C0180300600C01803F98C7
:1001B0000300600C018030019A00C0180300600C3D
:1001C000019FE03F980300600C018030019A80D8C5
:1001D0001B03606C0D01BFE03F980B01606C0D814B
:1001E000B0100200C0180300600C01803F980B01A2
:1001F000606C0D81B0119A80D81B03606C0D01BF3B
:10020000E03F980B01606C0D81B0119A00C018039B
:1002100000600C019FE0A00AB02A140D1F011420F9
:10022000025E2B090D1F014B3F08982A1151280827
:10023000B3251164560A582A09162002251C0318F2
:1002400024022F3304162702EA00E600E200DE0053
:10025000DA00D600D200CE00CA00C600C200BE003E
:10026000BA00B600B200AE0000000000003E5B4FD6
:100270005B3E3E6B4F6B3E1C3E7C3E1C183C7E3C06
:10028000181C577D571C1C5E7F5E1C00183C180014
:10029000FFE7C3E7FF0018241800FFE7DBE7FF30A4
:1002A000483A060E2629792926407F050507407F12
:1002B00005253F5A3CE73C5A7F3E1C1C08081C1C85
:1002C0003E7F14227F22145F5F005F5F06097F017B
:1002D0007F006689956A606060606094A2FFA29466
:1002E00008047E040810207E201008082A1C080834
:1002F0001C2A08081E101010100C1E0C1E0C303882
:100300003E3830060E3E0E06000000000000005F82
:1003100000000007000700147F147F14242A7F2A9E
:100320001223130864623649562050000807030060
:10033000001C2241000041221C002A1C7F1C2A08AC
:10034000083E08080080703000080808080800000F
:1003500060600020100804023E5149453E00427F83
:10036000400072494949462141494D331814127FD2
:100370001027454545393C4A494931412111090772
:100380003649494936464949291E000014000000F3
:1003900040340000000814224114141414140041C5
:1003A00022140802015909063E415D594E7C121182
:1003B000127C7F494949363E414141227F414141BA
:1003C0003E7F494949417F090909013E4141517335
:1003D0007F0808087F00417F41002040413F017FA6
:1003E000081422417F404040407F021C027F7F046E
:1003F00008107F3E4141413E7F090909063E4151B7
:10040000215E7F09192946264949493203017F01A6
:10041000033F4040403F1F2040201F3F4038403FA7
:10042000631408146303047804036159494D4300BD
:100430007F4141410204081020004141417F0402F4
:10044000010204404040404000030708002054548B
:1004500078407F2844443838444444283844442869
:100460007F385454541800087E090218A4A49C78BC
:100470007F0804047800447D40002040403D007F18
:100480001028440000417F40007C047804787C08F8
:100490000404783844444438FC18242418182424CC
:1004A00018FC7C08040408485454542404043F44B1
:1004B000243C4040207C1C2040201C3C4030403CE0
:1004C00044281028444C9090907C4464544C440040
:1004D00008364100000077000000413608000201A4
:1004E0000204023C2623263C1EA1A161123A404090
:1004F000207A38545455592155557941225454780D
:1005000042215554784020545579400C1E527212A5
:10051000395555555939545454593955545458002E
:1005200000457C410002457D420001457C407D1232
:1005300011127DF0282528F07C5455450020545494
:100540007C547C0A097F4932494949323A4444443F
:100550003A324A4848303A4141217A3A424020787A
:10056000009DA0A07D3D4242423D3D4040403D3C7B
:1005700024FF2424487E4943662B2FFC2F2BFF09A0
:1005800029F620C0887E0903205454794100004494
:100590007D413048484A32384040227A007A0A0A7F
:1005A000727D0D19317D2629292F282629292926F2
:1005B00030484D4020380808080808080808382F37
:1005C00010C8ACBA2F102834FA00007B00000814C1
:1005D0002A142222142A14085500550055AA55AA97
:1005E00055AAFF55FF55FF000000FF00101010FF37
:1005F00000141414FF001010FF00FF1010F010F092
:10060000141414FC001414F700FF0000FF00FF1482
:1006100014F404FC141417101F10101F101F1414CE
:10062000141F00101010F0000000001F1010101018
:100630001F10101010F010000000FF10101010100C
:1006400010101010FF10000000FF140000FF00FF4A
:1006500000001F10170000FC04F4141417101714E6
:1006600014F404F40000FF00F71414141414141408
:10067000F700F7141414171410101F101F1414147B
:10068000F4141010F010F000001F101F0000001FE5
:1006900014000000FC140000F010F01010FF10FF18
:1006A000141414FF141010101F00000000F010FFAD
:1006B000FFFFFFFFF0F0F0F0F0FFFFFF0000000091
:1006C00000FFFF0F0F0F0F0F3844443844FC4A4A15
:1006D0004A347E02020606027E027E0263554941CA
:1006E000633844443C04407E201E2006027E020201
:1006F00099A5E7A5991C2A492A1C4C7201724C3015
:100700004A4D4D303048784830BC625A463D3E49EB
:100710004949007E0101017E2A2A2A2A2A44445F8F
:10072000444440514A444040444A51400000FF0183
:1007300003E080FF000008086B6B08361236243691
:10074000060F090F060000181800000010100030F6
:1007500040FF0101001F01011E00191D1712003C7E
:100760003C3C3C0000000000000103070F1F3F7FDE
:100770000080C0E0F0F8FCFE00000000230026002E
:100780002900000000080002010000030407000027
:10079000000000000000DB40A4A62EAF2000A1C88E
:1007A000D300408DAED580A80000000000000000FE
:1007B0000000000000000000000000000000000039
:1007C0000000000000000000000000000000000029
:1007D0000000000000000000000000000000000019
:1007E0000000000000000000000000000000000009
:1007F00000000000000000000000000000000000F9
:100800000000000000000000000000000000001FC9
:10081000C000000000000000000000000000007F99
:10082000F00000000000000000000000000000F0E8
:100830007C0000000000000000000000000001C07B
:100840001E00000000000000000000000000038FF8
:10085000C700000000000000000000000000073F8B
:10086000E3800000000000000000000000000678A7
:10087000738000000000000000000000000006700F
:100880003F800000000000000000000000000EE7B4
:100890009F000000000000000000000000000CCFDE
:1008A000CE000000000000000000000000000CCCA2
:1008B000E7000000000000000000000000000CCC79
:1008C00073800000000000000000000000000CCE5B
:1008D00039800000000000000000000000000EE76A
:1008E0001DC00000000000000000000000000673B2
:1008F0008CC000000000000000000000000007396C
:10090000CCC0000000000000000000000000031C3C
:10091000EEE0000000000000000000000000038E78
:10092000EEE000000000000000000000000001C731
:10093000EEC000000000000000000000000001E325
:10094000CCC000000000000000000000000003F028
:100950001CC0000000000000000000000000073C78
:1009600039C0000000000000000000000000039FEC
:10097000F18000000000000000000000000001C73E
:10098000E38000000000000000000000000000E024
:100990000F000000000000000000000000000078D0
:1009A0003E00000000000000000000000000003FCA
:1009B000F800000000000000000000000000000F30
:1009C000E000000000000000000000000000000047
:1009D0000000000000000000000000000000000017
:1009E0000000000000000000000000000000000007
:1009F00000000000000000000000000000000000F7
:100A000000000000000000000000000000000000E6
:100A100000000000000000000000000000000000D6
:100A200000000000000000000000000000000000C6
:100A300000000000000000000000000000000000B6
:100A400000000000000000000000000000000000A6
:100A50000000000000000000000000000600080088
:100A60000000000000000000000000001F80180CC3
:100A70000000001800000000000000001FC01C0C57
:100A800000000018000000000000000038C01C0C2E
:100A900000000018000000000000000030C79CFCAF
:100AA0007091C1F80000000000000000380FDDFC6C
:100AB000FDFFF3F800000000000000001F1CD99D9E
:100AC000CDE7373800000000000000000F987B0DD4
:100AD0008DC63E18000000000000000001F87F0FE6
:100AE000FD87FE18000000000000000020F87F0FC6
:100AF000FD8FF618000000000000000030F87F0FA6
:100B000081860618000000000000000038D8FB9D18
:100B10008D86373800000000000000001FDFD9FD7F
:100B2000FD87F3F800000000000000000F8F88FC34
:100B3000F983E1F800000000000000000000000060
:100B400000000000000000000000000000000000A5
:100B50000000000000000000000000000000000095
:100B60000000000000000000000000000000000085
:100B70000000000000000000000000000000000075
:100B80000000000000000000000000000000000065
:100B90000000000000000000000000000000000055
:100BA0000000000000000000FFFFFFFFFFFFFFFF4D
:100BB000FFFFFFFFFFFFFFFFFFFFFFFFFFEFFFFF55
:100BC000FFFFFFFFFFFFFFFFFFFF1FFFFFF7FFFF1D
:100BD000FFFFFFFFFFFFFFFFFFFCBFFFFFFDFFFF6A
:100BE000FFFFFFFFFFFFFFFFFFFFFFFFFFFEFFFF16
:100BF000FFFFFFFFFFFFFFFFFFFFFFFE7FC03FF391
:100C0000FFFFFFFFFFFFFFFFFFFFFFF9FF807FFFF9
:100C1000FFFFFFFE3F5FFFFFFFFFFFFFFE0004FF40
:100C2000FFFFFFFE43707FFFFFFFFFF7D90000606B
:100C30007FFFE7FFE1D80FFFFFFF8FFFD00000002D
:100C40000B7F802867CFCFFFFFFE01FC480000002C
:100C5000000F80000C01C7FFFFFC008000000000B7
:100C60000001000000078BFF1FF842000000000099
:100C7000003B8000002FC7FFFFF88000000000004D
:100C8000003F8000001FFFFFFFE180000000000028
:100C900018FF8000001F1FFFFFE1C00000000001DF
:100CA000B7FFCFE0001F07FFFEF98000000000073C
:100CB000E7FFFFF0001F83FFFEF700000000001FAA
:100CC000CFFFFFF8000301FFFA70000000000007EB
:100CD000CFFFFFFC000100FFFA400000000000070A
:100CE000DFFFFFFE00000EFFFF8000000000000796
:100CF000FFFFFFFE0000067FFF0000000000000F66
:100D0000FFFFFFFE000007FFFF860E000000001B34
:100D1000FFFFFFFE00001FFFFF331F000000003B2E
:100D2000FFFFFFFE00003FFFF87DB000000000FF66
:100D3000FFFFFFFE00007FFFFCFFA000000006F7A2
:100D4000FFFFFFFF0000FFFFFF87FC00000006CF52
:100D5000FFFFFFFF0000FFFFFC07FC00000007FF94
:100D6000FFFFFFFFC001FFFFF8000000000003FFCE
:100D7000FFFFFFFFC01DFFFFF0000410000003FF96
:100D8000FFFFFFFFC07DFFFFE000061A800007FFA6
:100D9000FFFFFFFFE87FFFFFC0000203C0201FFF2F
:100DA000FFFFFFFFFC7FFFFFC0000303E070FFFFBA
:100DB000FFFFFFFFFC27DFFFC0000107F0F07BFF14
:100DC000FFFFFFFFFF0FFFFFC000009FF1F87FFF55
:100DD000FFFFFFFFFFE3FFFFC000007FF9FE7FFF83
:100DE000FFFFFFFFFFFBBFFFE000000FFBFBFDFF6E
:100DF000FFFFFFFFFFFD03FFF040001FFFFDFFFFB0
:100E0000FFFFFFFFFFFF007FFFF0003FFFFEEFFF50
:100E1000FFFFFFFFFFFF003FFFF0007FFFF98BFFA9
:100E2000FFFFFFFFFFFE003FFFF000FFFFFCDB873F
:100E3000FFFFFFFFFFFE0003FFF801FFFFFEFFE1E2
:100E4000FFFFFFFFFFFE0000FFF800FFFFFFBFF105
:100E5000FFFFFFFFFFFF0000FFFC00FFFFFFFFFFA2
:100E6000FFFFFFFFFFFF0001FFFC00FFFFFFFF9BF5
:100E7000FFFFFFFFFFFF0003FFF801DFFFFFFE1989
:100E8000FFFFFFFFFFFF8003FFF8039FFFFFF80155
:100E9000FFFFFFFFFFFFE003FFFC039FFFFFE000FA
:100EA000FFFFFFFFFFFFE003FFFC03BFFFFFE000CA
:100EB0007FFFFFFFFFFFE01FFFFE07FFFFFFE000D8
:100EC0007FFFFFFFFFFFE01FFFFE0FFFFFFFE000C0
:100ED0007FFFFFFFFFFFE01FFFFE0FFFFFFFE0C0F0
:100EE0007FFFFFFFFFFFE03FFFFE1FFFFFFFE7E089
:100EF000FFFFFFFFFFFFC07FFFFFFFFFFFFFFFF0D0
:100F0000FFBFFFFFFFFFC0FFFFFFFFFFFFFFFFFF70
:100F1000FFBFFFFFFFFFC1FFFFFFFFFFFFFFFFFF5F
:100F2000FF7FFFFFFFFF87FFFFFFFFFFFFFFFFFFC9
:100F3000FEFFFFFFFFFFC7FFFFFFFFFFFFFFFFFFFA
:100F4000FDFFFFFFFFFFCFFFFFFFFFFFFFFFFFFFE3
:100F5000FFFFFFFFFFFF8FFFFFFFFFFFFFFFFFFF11
:100F6000FFFFFFFFFFFFDFFFFFFFFFFFFFFFFFFFB1
:100F7000FFFFFFFFFFFFDFFFFFFFFFFFFFFFFFFFA1
:100F8000FFFFFFFFFFFFE7FFFFFFFFFFFFFFFFFF89
:100F9000FFFFFFFFFFFFFFFFFFFFFFFFFFFFFFFF61
:100FA000FFFFFFFFFFFFFFFF06010201FE00FA0047
:100FB000F600F200EE0000000000250028002B00E3
:100FC00000000000240027002A0004040404040494
:100FD00004040202020202020303030303030102E8
:100FE00004081020408001020408102001020408B7
:100FF000102057010A0130003A00112200FF2100A1
:101000000B26CE3311241FBECFEFD8E0DEBFCDBFFD
:1010100011E0A0E0B1E0ECE0F7E702C005900D922E
:10102000A63EB107D9F723E0A6EEB1E001C01D92BC
:10103000AF3CB207E1F718E0C1E0D8E004C0219767
:10104000FE010E94423AC030D107C9F70E946726CC
:101050000C94793B0C94000091E09093C60280932D
:10106000C5021092C4021092C30208958091B90380
:101070009091BA03892B49F08091AE039091AF0310
:1010800006979093AF038093AE031092BA03109229
:10109000B90381E090E09093B3038093B2039093FF
:1010A000B1038093B0038093B4038093B50380931E
:1010B000B70308959091C2028091C1022FEF3FEFD4
:1010C000981748F4E92FF0E0E256FD4F208130E018
:1010D0009F5F9093C202C90108959091C2028091CE
:1010E000C1022FEF3FEF981748F4E92FF0E0E256E6
:1010F000FD4F208130E09F5F9093C202C9010895A7
:101100009091C0029111FCCF91E09093C002909316
:10111000BF022FEF20939D0210929C02260F209376
:101120009B0290939A0290919A02880F892B809348
:101130009A028091BE028130F9F41092BE02809131
:101140009A028093BB008091BC0083FDF8CF85ECB0
:101150008093BC008091C0028130E1F380919C02B9
:10116000861710F460919C02AAE7B2E0EEE9F2E083
:1011700080E0861303C0089585EEEACF9D91919398
:101180008F5FF7CF8091C1029091C202891B990BAA
:101190000895089580910D01853041F090E0019609
:1011A00065E070E00E945D3880930D0108958091A4
:1011B0000D01853029F48091E60180930D01089599
:1011C0008093E60185E0F9CFAF92BF92CF92DF9294
:1011D000EF92FF920F931F93CF93DF936C017B01EC
:1011E0008B01040F151FEB015E01AE18BF08C0177D
:1011F000D10759F06991D601ED91FC910190F081F0
:10120000E02DC6010995892B79F7C501DF91CF91B2
:101210001F910F91FF90EF90DF90CF90BF90AF9014
:101220000895833081F028F4813099F08230A9F05C
:1012300008958730A9F08830C9F08430B1F48091E6
:1012400080008F7D03C0809180008F778093800025
:10125000089584B58F7784BD089584B58F7DFBCFC5
:101260008091B0008F778093B00008958091B00096
:101270008F7DF9CFCF93DF93282F30E0F901EE5720
:10128000F84F8491F901E252F04FD491F901E653FD
:10129000F04FC491CC23A1F081110E941109EC2FD1
:1012A000F0E0EE0FFF1FE858F84FA591B491EC91D4
:1012B000ED2381E090E009F480E0DF91CF91089583
:1012C00080E090E0FACF1F93CF93DF93282F30E098
:1012D000F901EE57F84F8491F901E252F04FD491A1
:1012E000F901E653F04FC491CC23A9F0162F8111D8
:1012F0000E941109EC2FF0E0EE0FFF1FEA54F04FAF
:10130000A591B4918FB7F894EC91111108C0D095C4
:10131000DE23DC938FBFDF91CF911F910895DE2BE9
:10132000F8CF1092C2021092C1021092C402109221
:10133000C3021092C00281E08093BF021092BE02ED
:1013400061E082E10E94630961E083E10E94630938
:10135000E9EBF0E080818E7F808380818D7F8083C8
:1013600088E48093B80085E48093BC0008953FB77B
:10137000F8948091500290915102A0915202B09144
:10138000530226B5A89B05C02F3F19F00196A11D59
:10139000B11D3FBFBA2FA92F982F8827BC01CD01BF
:1013A000620F711D811D911D42E0660F771F881F1E
:1013B000991F4A95D1F708958F929F92AF92BF924D
:1013C000CF92DF92EF92FF924B015C010E94B7092E
:1013D0006B017C010E94B7096C197D098E099F0978
:1013E000683E734081059105A8F321E0821A9108B7
:1013F000A108B10888EEC80E83E0D81EE11CF11CDC
:1014000081149104A104B10429F7FF90EF90DF90BB
:10141000CF90BF90AF909F908F9008952FB7F89482
:1014200060914C0270914D0280914E0290914F025A
:101430002FBF0895FC0183A5882329F081E022A510
:1014400095A1291380E00895CF92DF92EF92FF9249
:101450000F931F93CF93DF93EC018CA10E943A0965
:1014600021E0892B09F420E02EA30E940E0A68A334
:1014700079A38AA39BA3EEA12FA1E2132DC191E032
:1014800098A798A59923F1F048A159A16AA17BA139
:10149000088919892A893B89DB01CA01801B910BC4
:1014A000A20BB30B8C019D01C880D980EA80FB8020
:1014B000C016D106E206F30628F4E9A7488B598B3B
:1014C0006A8B7B8BEFA31BA629A58AA52817C1F0E1
:1014D00088A199A1AAA1BBA14C895D896E897F8948
:1014E000841B950BA60BB70B4C815D816E817F81B0
:1014F000481759076A077B0718F42AA781E08BA7CA
:101500001FA6CE010E941A0A8823B9F088A199A1CA
:10151000AAA1BBA1488D598D6A8D7B8D841B950B2B
:10152000A60BB70B4C855D856E857F858417950767
:10153000A607B70708F4D6C018AA88A91BA5811169
:1015400031C011112DC09AA58DA1981741F1C88CF9
:10155000D98CEA8CFB8C8C8D9D8DAE8DBF8D8C19BA
:101560009D09AE09BF09488559856A857B8548175D
:1015700059076A077B0708F4B8C048A159A16AA1B6
:101580007BA14C195D096E097F0981E0CC84DD8463
:10159000EE84FF844C155D056E057F0508F480E040
:1015A0008FA788ABCE010E941A0A8823B9F048A100
:1015B00059A16AA17BA1888D998DAA8DBB8D481BED
:1015C000590B6A0B7B0B81E0CC84DD84EE84FF84B5
:1015D0004C155D056E057F0508F080E08EA71CA602
:1015E000112321F09AA58DA198131DA68DA5811117
:1015F0001FC011111BC09AA58DA1981378C048A1D6
:1016000059A16AA17BA1888D998DAA8DBB8D481B9C
:10161000590B6A0B7B0B81E0C884D984EA84FB8474
:10162000C416D506E606F70608F080E08CA78DA75D
:10163000112391F0C8A0D9A0EAA0FBA0CC8ADD8A32
:10164000EE8AFF8ACE010E941A0A882309F451C04B
:10165000C88ED98EEA8EFB8EE9A8FAA8E114F104AF
:1016600009F44CC0CE010E941A0A882309F446C02E
:101670008BAD9CADF7010995EDA9FEA9309741F01E
:101680008CA5882329F0DE01DF968D919C91099528
:10169000EFA9F8AD309749F08EA5882331F0DE012F
:1016A000AF5BBF4F8D919C910995E9ADFAAD309735
:1016B00049F08FA5882331F0DE01AD5BBF4F8D91DE
:1016C0009C9109958BA5DF91CF911F910F91FF9070
:1016D000EF90DF90CF90089518A6688B798B8A8B56
:1016E0009B8BCFCE81E088AB28CF812F59CF812F24
:1016F0009DCFCC8EDD8EEE8EFF8EAECFEBA9FCA9FA
:10170000309709F4B9CF112309F4B6CF9AA58DA16A
:10171000981709F4B1CF8DAD9EADADCF89E193E0BF
:101720000E94240A84ED92E00C94240AEF92FF9226
:101730000F931F93CF93DF93EC01EC80FD806E1528
:101740007F050CF070C057FF04C0240F351F50E018
:1017500040E08E819F81FA01E20FF31F8E179F07F1
:101760001CF49C01241B350B121613060CF05BC0F5
:10177000922F842F8695869586958E9DD0018F9D7C
:10178000B00D11246A0F7B1FAD8DBE8DA60FB71F44
:10179000477049F188E0841B482F682F70E0FB01F7
:1017A000E059F84FE491281708F063C0621B7109F3
:1017B0002FEF30E002C0359527956A95E2F7E223D6
:1017C0000130110539F0B0F10230110561F58C914D
:1017D000E82702C08C91E82BEC93941720F12C8120
:1017E0003D81A20FB31FE92FE41BE83078F00230EF
:1017F000110521F58E2F9C9190959C932C813D8114
:10180000A20FB31F88508830B0F7E770EE2359F06D
:10181000F0E0E859F84FE49101301105F9F010F1CA
:101820000230110519F1DF91CF911F910F91FF90B7
:10183000EF900895E0958C91E823CECF81E00115DB
:10184000110509F480E081959E2F8C932C813D81B8
:10185000A20FB31F98509830C0F7D7CF8C91E82BC8
:10186000EC93E1CFE0958C91E823FACF8C91E827B7
:10187000F7CF0130110509F4ADCFE0F202301105C8
:1018800009F4A5CFAE0DBF1DAECF0F931F93CF931D
:10189000DF9377FF04C0260F371F70E060E0DC01A4
:1018A0001496CD91DC91FB01E20FF31FCE17DF07F9
:1018B0001CF49E01261B370B121613064CF5FA0179
:1018C00057FD3796A3E0F595E795AA95E1F7EC9FCC
:1018D000D001ED9FB00DFC9FB00D11246A0F7B1F4E
:1018E000DC015D96ED91FC91E60FF71F47705527DF
:1018F00081E090E001C0880F4A95EAF7482F013057
:10190000110559F0A8F02E0F3F1F02301105E1F02C
:10191000DF91CF911F910F9108952E0F3F1FE21776
:10192000F307B1F38191DF011197842B8C93F7CFEB
:1019300080952E0F3F1FE217F30751F39191DF01BE
:10194000119798239C93F7CFE217F30709F381913E
:10195000DF01119784278C93F7CF0F931F93FA0120
:10196000DC0156964C9156974230E9F04330A1F194
:10197000413061F514964D915C91DA01AE1BBF0BBD
:10198000FD01E21BF30B77FD0BC0DC0116964D91B8
:101990005C916417750724F4AB01BF010E94450CEC
:1019A0001F910F91089514964D915C91DA01A61B39
:1019B000B70BBD0161507109DC0116964D915C9128
:1019C000DA01AE1BBF0BFD01E21BF30B77FDE8CF85
:1019D000AF010E94960BE4CF16964D915C91DA010F
:1019E000A61BB70BBD0161507109CDCF0F931F939B
:1019F000FA01DC0156964C9156974230A9F04330DB
:101A000091F1413019F514964D915C91DA01AE1BBC
:101A1000BF0BFD013197F7FD04C0AB01BF010E9470
:101A2000960B1F910F91089514964D915C91DA01D8
:101A3000A61BB70BBD01DC0116964D915C91DA0136
:101A4000AE1BBF0BFD013197621B730BF7FDE9CF96
:101A5000DC0116964D915C91E417F50714F7AF0180
:101A60000E94450CDECF16964D915C91DA01A61BC3
:101A7000B70BBD01621B730BCECFFC0177FD64C0B9
:101A800080859185681779070CF05EC057FD5CC0B2
:101A900082859385481759070CF056C08689823095
:101AA000B1F0833029F1813041F484819581841B28
:101AB000950BAB01BC01615071092130310509F171
:101AC00008F443C02230310509F463C008958481CD
:101AD0009581DC01A61BB70BBD01615071098681A0
:101AE0009781DC01A41BB50BAD0141505109E5CF35
:101AF00086819781861B970BBA01AC014150510931
:101B0000DCCFCA0157FD0796A3E095958795AA9566
:101B1000E1F7A481B5818A9F90018B9F300D9A9F38
:101B2000300D1124620F731F058CF68DE02DE60F2A
:101B3000F71F4770552721E030E001C0220F4A957A
:101B4000EAF78081822B80830895CA0157FD0796AA
:101B500033E0959587953A95E1F7A481B5818A9F01
:101B600090018B9F300D9A9F300D1124620F731FCF
:101B7000058CF68DE02DE60FF71F4770552781E0A5
:101B800090E001C0880F4A95EAF7809590818923FB
:101B9000DACFCA0157FD079623E0959587952A95D8
:101BA000E1F7A481B5818A9F90018B9F300D9A9FA8
:101BB000300D1124620F731F058CF68DE02DE60F9A
:101BC000F71F4770552721E030E001C0220F4A95EA
:101BD000EAF780818227B7CF0895FC016370668B96
:101BE0008481958126813781613039F0633029F015
:101BF000918780873387228708953187208793874D
:101C0000828708952F923F924F925F926F927F92B8
:101C10008F929F92AF92BF92CF92DF92EF92FF92FC
:101C20000F931F93CF93DF93CDB7DEB76A970FB6AD
:101C3000F894DEBF0FBECDBF9A8F898F7A836983F8
:101C40004A01D22E18870F833701BC2CDC0159962C
:101C50002D913C915A972115310509F015C118961F
:101C60008D919C911997681779070CF0D7C11A9636
:101C70008D919C91481759070CF0D0C14C2C512CD8
:101C8000B6E0CB9E600D711D11247C876B87161604
:101C900017060CF0C3C1EA2DF0E0FA87E98793E05C
:101CA000EE0FFF1F9A95E1F7F88BEF87CF01840FB6
:101CB000951F181619060CF0B1C1A98DBA8D58964A
:101CC0008C91811104C0BFEABD1508F4D394A98D8D
:101CD000BA8DED91FC9111970680F781E02DCD0131
:101CE0000995B5E0DB9EC0011124E981FA81FC83EE
:101CF000EB83312C212C9C0128593D4F388F2F8BA1
:101D00004A2D50E05E8B4D8BEF89F88DE20DF31D6F
:101D100044919E828D82D12CC12C69817A81620D81
:101D2000731D7A8B698B842F90E09C8B8B8BE98D54
:101D3000FA8DA081B18140FF82C0F1E0BF126FC077
:101D4000AF126DC01896ED91FC912F813885A401DA
:101D50004C0D5D1D69897A89898D9A8D0995EB896C
:101D6000FC89F595E7954E2F5FEFC51AD50A6D8171
:101D70007E818D899E89680F791F7E836D8398E0AF
:101D8000C916D10481F6AFEF2A1A3A0AEB81FC8119
:101D9000E40DF51DFC83EB83F5E02F16310409F00B
:101DA000B3CF2F81388526153705B9F0A98DBA8DA7
:101DB000ED91FC91B1E0BB1257C0AB1255C06981E7
:101DC0007A816B5F7F4F0484F585E02D830128E0E5
:101DD00030E0A401898D9A8D0995A98DBA8DED9178
:101DE000FC9111970288F389E02DCD016A960FB618
:101DF000F894DEBF0FBECDBFDF91CF911F910F9141
:101E0000FF90EF90DF90CF90BF90AF909F908F901A
:101E10007F906F905F904F903F902F9009941A960B
:101E2000ED91FC91EF80F88409851A8592014D812E
:101E30005E816B817C81898D9A8D099590CF2F81F0
:101E400038852615370509F48ACF31E0B31207C06B
:101E5000A31205C01896ED91FC91930178CF1A96C4
:101E6000ED91FC917301E0CF6B857C856419750958
:101E70000284F385E02D73010F8518899201A40176
:101E8000898D9A8D0995A9CFF9013496949132974D
:101E900045915491D91AB7E0DB9E400D511D112494
:101EA000F901259134913C8B2B8BFA0125903490CC
:101EB000FA013296749031963491398B329664904F
:101EC0003196449041E04C1518F04A1508F07FC057
:101ED000662D062C000C770B7C836B83842D042CE1
:101EE000000C990B9E838D83A98DBA8DED91FC9189
:101EF00011970680F781E02DCD010995512CD12C49
:101F0000C12CEA2DF0E0FA87E9872B2D30E03C87E1
:101F10002B87A401440D511D47FC5A95588F4F8BB8
:101F200069817A81660D711D67FC7A957E876D8760
:101F30007989C71608F051CF2C2D30E04D815E8194
:101F4000420F531FA985BA854A9FC0014B9F900D30
:101F50005A9F900D1124FC01E80DF91DF88BEF87B5
:101F6000852D612C4F89588D420F531F5E8B4D8BF1
:101F7000671408F050C044244394480E877041F41D
:101F8000C1010196EB89FC89E20DF31DD4901C017F
:101F9000D7FE19C0A98DBA8DED91FC91662D70E028
:101FA000B1E0BB1219C0AB1217C02D853E85620F80
:101FB000731F0084F185E02D2F8138854D895E895E
:101FC000898D9A8D0995DD0C6394842DD1CF1E8265
:101FD0001D821C821B8288CF4B815C81640F751F20
:101FE000AB85BC856A9FC0016B9F900D7A9F900D59
:101FF000112469817A81680F791F0284F385E02DAD
:10200000EF80F88409851A859D014F855889898D4F
:102010009A8D0995D8CF570CC3948ACF6A960FB67C
:10202000F894DEBF0FBECDBFDF91CF911F910F910E
:10203000FF90EF90DF90CF90BF90AF909F908F90E8
:102040007F906F905F904F903F902F9008958F9268
:102050009F92AF92CF92EF92FF920F931F93CF93E5
:10206000DF93EC01262F898D9A8D009709F051C0DE
:102070006A30D1F41D861C868D8948E0849F9001CA
:1020800011248E859F85820F931F9F878E8781E005
:1020900090E0DF91CF911F910F91FF90EF90CF9043
:1020A000AF909F908F9008956D3089F3CC88AD8864
:1020B0008F898823C1F08C859D8536E0C39E800D75
:1020C000911D1124488559854817590764F44E8598
:1020D0005F851D861C8638E0A39EC0011124840FF5
:1020E000951F9F878E87EA88FB88088919894E8506
:1020F0005F856C857D85CE010E94020E2C898C85C2
:102100009D8546E0249F800D911D11249D878C871D
:10211000BECF6A3069F41D861C86FC013896E491B6
:102120002D898E859F85E29F800D911D1124ADCF55
:102130006D3009F4ACCFFC0134963491631708F488
:10214000A6CF3296E491E61708F4A1CFFC013296AF
:1021500085909490462F431B342F47E0349F800C8A
:10216000911C1124F401329634913196E491332379
:10217000A9F1EE2399F1CC88F4013596E491AD886C
:102180004F89442301F10E2E000CFF0BE30FF11DCC
:10219000CE9EA001CF9E500D11246C857D85460FEB
:1021A000571F68857985641775076CF44E855F85C0
:1021B0001D861C86FC013896E491AE9E400D511D93
:1021C00011245F874E87EA88FB88088919894E8524
:1021D0005F856C857D85CE010E94020EF4013496E8
:1021E000E4912C898C859D85E29F800D911D1124A1
:1021F0008DCF0F931F93CF93DF93EC018B010E9440
:102200000E0A71FF06C08091C70260E280171106B6
:1022100021F0C00FD11F6881605D80EA93E0DF91FB
:10222000CF911F910F910C9427106F927F928F92F4
:102230009F92AF92BF92CF92DF92EF92FF920F9355
:102240001F93CF93DF93EC016B015A0139014801D1
:10225000E881F9810680F781E02D0995E881F9810F
:102260000684F785E02D87019301A501B601CE0113
:102270000995A501480D591D41505109E881F98181
:102280000684F785E02D9301B601CE010995E8811A
:10229000F9810484F585E02D9401A501B601CE01F4
:1022A0000995C60CD71CB60161507109E881F98106
:1022B0000484F585E02D9401A501CE010995E881FE
:1022C000F9810288F389E02DCE01DF91CF911F9132
:1022D0000F91FF90EF90DF90CF90BF90AF909F90C5
:1022E0008F907F906F9009946F927F928F929F92C0
:1022F000AF92BF92CF92DF92EF92FF920F931F9314
:10230000CF93DF935C01EB016A014901380187013A
:10231000DC01ED91FC916217730719F564167506DF
:102320002CF0962D872D3A01C92ED82E960126190C
:1023300037092F5F3F4F008CF18DE02DA301BE01C7
:10234000C5010995DF91CF911F910F91FF90EF90FB
:10235000DF90CF90BF90AF909F908F907F906F90C5
:1023600008954615570591F42617370724F0892D4F
:102370004B01C22FD82F9E01281939092F5F3F4FDB
:10238000028CF38DE02DA601B401DACF0680F7812F
:10239000E02D0995D501ED91FC910088F189E02DA2
:1023A00083019401A601BE01C5010995D501ED91F6
:1023B000FC910288F389E02DC501DF91CF911F9137
:1023C0000F91FF90EF90DF90CF90BF90AF909F90D4
:1023D0008F907F906F900994EF92FF920F931F93CD
:1023E000DC011A960D911C911B9718962D913C912A
:1023F0001997ED91FC91048CF58DE02D7B0150E057
:1024000040E070E060E009951F910F91FF90EF9020
:1024100008954F925F926F927F928F929F92AF92A8
:10242000BF92CF92DF92EF92FF920F931F93CF93C1
:10243000DF936C012B015A0139014801DC01ED9158
:10244000FC910680F781E02D0995E201640C751C72
:10245000D601ED91FC91C615D7055CF40484F58591
:10246000E02D87019401A501BE01C60109952196C1
:10247000EFCF0288F389E02DC601DF91CF911F9144
:102480000F91FF90EF90DF90CF90BF90AF909F9013
:102490008F907F906F905F904F9009948F929F9252
:1024A000AF92BF92CF92DF92EF92FF920F931F9362
:1024B000CF93DF93EC015B014A016901E881F98167
:1024C0000680F781E02D099595012C0D3D1D2150C9
:1024D0003109E881F9810088F189E02D78018401D2
:1024E000A401B501CE010995E881F9810288F3893B
:1024F000E02DCE01DF91CF911F910F91FF90EF90D2
:10250000DF90CF90BF90AF909F908F9009948F9263
:102510009F92AF92BF92CF92DF92EF92FF920F9372
:102520001F93CF93DF93EC015B014A0169017801AE
:10253000E881F9810680F781E02D0995C80CD91C46
:10254000860101501109E881F9810088F189E02DA7
:102550009501A401B501CE010995E881F9810288B0
:10256000F389E02DCE01DF91CF911F910F91FF9064
:10257000EF90DF90CF90BF90AF909F908F90099495
:10258000EF92FF920F931F93DC01ED91FC91048C6D
:10259000F58DE02D09951F910F91FF90EF90089513
:1025A0000F931F93DC01ED91FC91028CF38DE02DD4
:1025B00009951F910F9108950F931F93DC01ED91E1
:1025C000FC91008CF18DE02D09951F910F910895DC
:1025D000DC01ED91FC910480F581E02D09942F92AE
:1025E0003F924F925F926F927F928F929F92AF92A3
:1025F000BF92CF92DF92EF92FF920F931F93CF93F0
:10260000DF938C01EB0181E090E06C01C61AD70AE0
:1026100044245524461A570A440C551CAB01405E0D
:102620005F4F21E030E0B80180EA93E00E94E812B9
:1026300040E250E04C1B5D0B21E030E0B80180EA45
:1026400093E00E94E812BE01600F711F21E030E0AC
:1026500040E250E080EA93E00E94E812B8016C1B6F
:102660007D0B21E030E040E250E080EA93E00E9400
:10267000E81222242394312CF12CE12CD7FC06C043
:10268000219782E0480E511CC40CD51C8FEFE81A2C
:10269000F80A82E0280E311CC20CD31C4701800EC0
:1026A000911E21E030E05E0180E2A80EB11CA50180
:1026B000B40180EA93E00E94E81238016E187F08A6
:1026C00021E030E0A501B30180EA93E00E94E81226
:1026D00021E030E080E2A82EB12CAC1ABD0AA501A1
:1026E000B40180EA93E00E94E81221E030E0A50105
:1026F000B30180EA93E00E94E812470180E2880E6D
:10270000911C21E030E0A4015801AC0EBD1EB501C2
:1027100080EA93E00E94E81221E030E0A401380151
:102720006C1A7D0AB30180EA93E00E94E81290E2FD
:10273000892E912C8E189F0821E030E0A401B5016C
:1027400080EA93E00E94E81221E030E0A401B301A6
:1027500080EA93E00E94E812EC16FD060CF48ECF9E
:10276000DF91CF911F910F91FF90EF90DF90CF906D
:10277000BF90AF909F908F907F906F905F904F90A1
:102780003F902F9008952F923F924F925F926F92B9
:102790007F928F929F92AF92BF92CF92DF92EF92F1
:1027A000FF920F931F93CF93DF9300D000D000D000
:1027B000CDB7DEB73C016A013E832D83FC82EB82FC
:1027C0005801A41AB50AB7FE03C0B194A194B10888
:1027D0008D809E80861A970A97FE03C091948194FB
:1027E00091088A149B045CF0902F812F0D811E812B
:1027F0009D838E839C2D8D2D6B01692F782F0C1559
:102800001D055CF09D818E817E836D83692F782FFD
:10281000902F812F8601C92ED82E1601201A310A39
:102820002B012D813E81421A530A57FE03C0519459
:1028300041945108710137FE03C03FEFE31AF30AD8
:10284000F594E7948D819E81861797075CF5A1E04A
:10285000B0E0BA83A983C016D1064CF1D301ED9143
:10286000FC910084F185E02D2B813C81A8016D81D4
:102870007E818A149B041CF04D815E81B801C301E6
:102880000995E418F508F7FE0AC02D813E8189817B
:102890009A81280F391F3E832D83E20CF31C0F5FB2
:1028A0001F4FD9CF2FEF3FEF3A832983D4CF2696FE
:1028B0000FB6F894DEBF0FBECDBFDF91CF911F9151
:1028C0000F91FF90EF90DF90CF90BF90AF909F90CF
:1028D0008F907F906F905F904F903F902F900895D2
:1028E00085ED8093BC008091BC0084FDFCCF1092EC
:1028F000C002089520912702260F3327331F21326B
:102900003105ECF42091C002FC0190E080E024301D
:1029100069F082E00895A09127022191AC01495FFE
:102920005D4FA40FB52FB11D2C930196861798F318
:1029300080912702680F6093270280E0089581E06C
:102940000895E091C2028091C102E81730F4F0E0EE
:10295000E256FD4F808190E008958FEF9FEF08953C
:10296000CF92DF92EF92FF920F931F93CF93DF935B
:102970007C01CB018A012091C602222389F0EB0160
:102980006B01C40ED51ECC15DD0569F06991D70128
:10299000ED91FC910190F081E02DC7010995F3CFF5
:1029A000642F0E947A14C801DF91CF911F910F917B
:1029B000FF90EF90DF90CF900895CF93DF931F9219
:1029C000CDB7DEB769832091C6022223F9F02091AA
:1029D000C302203258F021E030E0FC01338322832F
:1029E00090E080E00F90DF91CF9108958091C40234
:1029F000E82FF0E0E951FE4F998190838F5F80933B
:102A0000C4028093C30281E090E0ECCF61E0CE018C
:102A100001960E947A14F7CF2091C30281E02132FF
:102A200008F044C08091C0028111FCCF8091C502A2
:102A300092E09093C00291E09093BF029FEF909339
:102A40009D0210929C0220939B02A7EEB1E0EAE760
:102A5000F2E090E0291331C010929A0290919A020C
:102A6000880F892B80939A028091BE02813049F5AC
:102A70001092BE0280919A028093BB008091BC00AC
:102A800083FDF8CF85EC8093BC008091C00282303A
:102A9000E1F380919D028F3FB1F080919D028032E1
:102AA000A1F080919D02803391F084E01092C402E5
:102AB0001092C3021092C60208953D9131939F5F18
:102AC000C9CF85EEE0CF80E0F1CF82E0EFCF83E0A9
:102AD000EDCFFF920F931F93CF93DF938C01F62ED0
:102AE0008091BB039091BC03892B09F44AC080916B
:102AF000BF030E942C088091BB039091BC03DC01B2
:102B0000ED91FC910190F081E02D60E00995E801E4
:102B100001E010E0FA948091BB039091BC03BFEFF9
:102B2000FB1641F100321105A0F00E940C158091B6
:102B3000BF030E942C088091BB039091BC03DC0171
:102B4000ED91FC910190F081E02D60E0099501E0AC
:102B500010E08091BB039091BC03FE016491DC0105
:102B6000ED91FC910190F081E02D09950F5F1F4FD1
:102B70002196D0CFDF91CF911F910F91FF900C94B0
:102B80000C15DF91CF911F910F91FF9008951F9326
:102B9000CF93DF93182F80916D038823B9F0EB0159
:102BA0000E942C08612F88EC92E00E94DD1468815D
:102BB00088EC92E00E94DD1488EC92E00E940C15F3
:102BC00091E0811101C090E090936C0382E191E06B
:102BD000DF91CF911F9108951F93CF93DF93DC0175
:102BE0005B962D913C91232B01F1162FEC018F8DDB
:102BF0000E942C088B8D9C8DDC01ED91FC91019045
:102C0000F081E02D60E009958B8D9C8DDC01ED91CC
:102C1000FC910190F081E02D612F09958B8D9C8DA9
:102C2000DF91CF911F910C940C15DF91CF911F91E3
:102C30000895EF92FF920F931F93CF93DF9320910C
:102C4000C2033091C3034091C4035091C50360E0B7
:102C500074E284EF90E00E948834205131094109E8
:102C6000510956954795379527952093B80065E00B
:102C70008BEF9FE00E9469156091A403615080EA88
:102C800093E00E94EC158091BB039091BC03892BCB
:102C900009F460C02091A6033091A703C9010796EB
:102CA00097FD079623E0959587952A95E1F7209162
:102CB000A4033091A503829F7001839FF00C929F23
:102CC000F00C11240091BD031091BE038091BF034D
:102CD0000E942C088091BB039091BC03DC01ED9114
:102CE000FC910190F081E02D60E40995E801EC0E83
:102CF000FD1E01E010E08091BB039091BC03EC1637
:102D0000FD0631F100321105A0F00E940C158091F2
:102D1000BF030E942C088091BB039091BC03DC018F
:102D2000ED91FC910190F081E02D60E4099501E0C6
:102D300010E08091BB039091BC036991DC01ED919F
:102D4000FC910190F081E02D09950F5F1F4FD3CFCB
:102D50000E940C152091C6033091C7034091C8030F
:102D60005091C90360E074E284EF90E00E948834DF
:102D700020513109410951095695479537952795B5
:102D80002093B800DF91CF911F910F91FF90EF90AA
:102D900008951F93CF93DF93EC01162F2AA13BA137
:102DA0004CA15DA160E074E284EF90E00E94883461
:102DB0002051310941095109569547953795279575
:102DC0002093B80066EA111167EACE010E94EC1563
:102DD0002EA13FA148A559A560E074E284EF90E0E0
:102DE0000E9488342051310941095109569547956F
:102DF000379527952093B800DF91CF911F910895C3
:102E000080910D01853051F48091C70290E00196C8
:102E10006EE070E00E945D388093C7020895CF9203
:102E2000DF92EF92FF920F931F9380910D018230FA
:102E300009F07EC0809171028330A8F590E0019680
:102E400063E070E00E945D388093710280917102AE
:102E5000813009F042C00E940E0A6093760270939E
:102E6000770280937802909379022091700280918A
:102E7000100190E03CE3239F800D911D11240197E8
:102E8000092E000CAA0BBB0B809372029093730265
:102E9000A0937402B09375021F910F91FF90EF9071
:102EA000DF90CF900895833059F48091700290E0C4
:102EB000059664E670E00E945D3880937002C6CF8C
:102EC000843021F68091100190E005966CE370E06B
:102ED0000E945D3880931001B9CF8230E9F6C0902E
:102EE0007202D0907302E0907402F09075020E941A
:102EF0000E0A0091760210917702209178023091AB
:102F00007902601B710B820B930B28EE33E040E0DB
:102F100050E00E948834C21AD30AE40AF50AC0922B
:102F20006C02D0926D02E0926E02F0926F02B4CF0A
:102F3000853009F0B1CF81E080936B02ADCF0F9364
:102F40001F9380910D018430C9F480916A02811130
:102F500018C081E080936A020E940E0A60936602A4
:102F600070936702809368029093690210926202E4
:102F70001092630210926402109265021F910F91E9
:102F80000895813041F582E080936A020E940E0A22
:102F9000AB01BC018091620290916302A091640236
:102FA000B09165020091660210916702209168025B
:102FB00030916902801B910BA20BB30B840F951FFC
:102FC000A61FB71F8093620290936302A0936402CE
:102FD000B0936502D3CF823089F681E080936A0294
:102FE0000E940E0A609366027093670280936802E3
:102FF00090936902C3CFCF93DF9381E50E942C08A1
:1030000064E088EC92E00E94DD1488EC92E00E947B
:103010000C1567E081E50E948008D82F1092C2024B
:103020008093C102CAE08091C202D81709F44DC052
:103030000E946D08982F929597708F709C9F800DBD
:103040001124809360030E946D08982F92959770C9
:103050008F709C9F800D112480935F030E946D08E8
:10306000982F929593708F709C9F800D1124809360
:103070005E030E946D08982F929593708F709C9FAD
:10308000800D1124809361030E946D0887708093E6
:1030900062030E946D0884FB992790F98F709C9FB2
:1030A000800D1124809363030E946D08982F9295E0
:1030B0009F708F709C9F800D112490E08E54984FCC
:1030C0009093650380936403AECFDF91CF91089511
:1030D0000E9480081092C2028093C1020895FF925C
:1030E0000F931F93CF93DF93C82F80916D03882395
:1030F00061F1072F162F0E942C086C2F88EC92E0AC
:103100000E94DD1488EC92E00E940C1591E0811180
:1031100001C090E090936C0361E080916D030E9488
:1031200068188091C1029091C202891B809313019B
:10313000F12EC12FD02F909113018C2F8F19891749
:1031400020F40E946D088993F6CF83E191E0DF912E
:10315000CF911F910F91FF900895CF93DF931F920E
:10316000CDB7DEB7BE016F5F7F4F0E946F188981B8
:103170000F90DF91CF9108951F93CF93DF931F920C
:10318000CDB7DEB7182F84EF0E94AD181F3F31F482
:1031900083700F90DF91CF911F910895137010935A
:1031A0008F038C7F812B8983BE016F5F7F4F84EFFC
:1031B0000E94C71580918F03ECCF1F93CF93DF93AD
:1031C00000D0CDB7DEB7182F85E08A8384EF0E9448
:1031D000AD18898384EF0E94AD18882301F1809196
:1031E0006D038823B9F30E942C0864EF88EC92E009
:1031F0000E94DD1460E088EC92E00E94DD1460E043
:1032000088EC92E00E94DD1488EC92E00E940C159C
:1032100091E0811101C090E090936C03DBCF1130FD
:1032200099F4BE016E5F7F4F82EF0E94C715BE0109
:103230006F5F7F4F84EF0E94C71581E00F900F9062
:10324000DF91CF911F91089589812A8130E011117A
:1032500009C08F7145E0220F331F4A95E1F7822B99
:103260008983E5CF837E220F331F220F331FF7CFD1
:103270002F923F924F925F926F927F928F929F9286
:10328000AF92BF92CF92DF92EF92FF920F931F9374
:10329000CF93DF93CDB7DEB7AF970FB6F894DEBF0D
:1032A0000FBECDBF9BA78AA77DA76CA75FA74EA720
:1032B00080918F038150823048F48FEF0E94BC18B8
:1032C000811104C080918F030E94BC1883EF0E947B
:1032D000AD188970D9F780916D03882369F10E9438
:1032E0002C0867EF88EC92E00E94DD1488EC92E0F5
:1032F0000E940C1591E0811101C090E090936C0345
:1033000068E080916D030E9468188091C1029091DD
:10331000C202891B809311018E010F5F1F4F78013C
:1033200090911101802F8E19891730F40E946D0839
:10333000D8018D938D01F4CF8C8190E0B0E0A0E0B6
:103340001CE0880F991FAA1FBB1F1A95D1F74D814A
:1033500050E070E060E004E0440F551F661F771FE7
:103360000A95D1F7842B952BA62BB72B2E8130E015
:1033700050E040E064E055954795379527956A956C
:10338000D1F7822B932BA42BB52B40917103509135
:10339000720370E060E06C017D01E4E0F594E79475
:1033A000D794C794EA95D1F7C41AD50AE60AF70A62
:1033B000F3E0B595A79597958795FA95D1F7440FC2
:1033C000551F661F771F4C015D01841A950AA60AD6
:1033D000B70AA5019401A0917503B09176030E94EC
:1033E00080342B013C010BE075946794579447940B
:1033F0000A95D1F7A7019601C701B6010E9441388D
:103400009B01AC018CE055954795379527958A959A
:10341000D1F7A0917703B09178030E9480342EE019
:1034200095958795779567952A95D1F75301420130
:10343000860E971EA81EB91E89869A86AB86BC8604
:103440008092900390929103A0929203B092930382
:10345000A5E0B0E0A50194010E94753460587F4F4B
:103460008F4F9F4F872E982EA92EBB24A7FCBA946E
:10347000888E998EAA8EBB8E80929403909295032B
:10348000A0929603B0929703898190E0B0E0A0E00B
:103490004CE0880F991FAA1FBB1F4A95D1F74A819C
:1034A00050E070E060E0E4E0440F551F661F771FB6
:1034B000EA95D1F7842B952BA62BB72B4B8150E0A7
:1034C00070E060E0F4E07595679557954795FA953B
:1034D000D1F74C015D01842A952AA62AB72A8EA22B
:1034E0009FA2A8A6B9A6C984DA84EB84FC84FF0C49
:1034F000CC08DC2C760129853A854B855C856C2DC2
:103500007C2D8C2D9C2D345F41405109610971093E
:10351000810991092D873E874F87588B698B7A8B5C
:103520008B8B9C8B59016A017B018C010E94713845
:103530002D8B3E8B4F8B59A36AA37BA38CA39DA39A
:1035400030917A0320917903932F990F990B492F8A
:10355000592F692F792F892F0E9471380CE00E9412
:10356000DA3919012A013B014C0130917C03209189
:103570007B03932F990F990BAD88BE88CF88D9A074
:10358000EAA0FBA00CA11DA1492F592F692F792F6B
:10359000892F0E94713808E00E94F33951016201BD
:1035A000730184010E94103A70588F4F9F4F2090F2
:1035B0007303309074035101C12CD12CE12CF12CF8
:1035C00000E010E00E94713801E20E94F3392C8F74
:1035D0003D8F4E8F5F8F68A3272E382E492EA0E097
:1035E0000E94223A09F099C110929803109299030F
:1035F00010929A0310929B0349845A846B847C84B2
:103600003CE2531A31E0630A710860916F0370E085
:1036100090E080E0A30192010E94C9380BE00E9473
:10362000F33930584F4F5F4F6F4F7F4F8F4F9F4F42
:1036300019014A0169877D878E879F876091700392
:10364000062E000C770B880B990BA30192010E94A8
:10365000C9380AE00E94F33959016A017B018C01E3
:103660009101A40169857D858E859F850E947138B1
:103670000AE00E94F339405E5F4F6F4F7F4F8F4FDC
:103680009F4FB0908A03A09089031B2D110F110B3F
:10369000C12ED12EE12EF12E012F0E947138305E05
:1036A0004F4F5F4F6F4F7F4F8F4F9F4F0EE00E94E6
:1036B000F33919014A016D877E878F87988BCF80F8
:1036C000D884DC24CD24DC24F12CE12C9EE0CC0C2D
:1036D000DD1CEE1CFF1C9A95D1F780918B03909115
:1036E0008C03092E000CAA0BBB0B24E1880F991F39
:1036F000AA1FBB1F2A95D1F7C81AD90AEA0AFB0AE2
:1037000097018601330F000B102F980109871A8744
:103710002B873C8760918D0370918E03072E000CE0
:10372000880B990BA30192010E94C9385901B42F4B
:10373000A52FF62FE72F8C019601A7016985762F1B
:10374000862F962FCB2EDA2EEF2EFE2E0E94193AC0
:10375000305C4F4F5F4F6F4F7F4F8F4F9F4F0FE04A
:103760000E94F33959016A017B018C019101A40186
:103770006D857E858F8598890E947138522E632EC3
:10378000742E852E962E472E382E292E0FE00E945D
:10379000F33959016A017B018C010E94713807E0FD
:1037A0000E94F339A0906E03B12CC12CD12CE12CD6
:1037B000F12C00E010E00E94713804E00E94F3391F
:1037C00059016A017B018C01252D362D472D582D7D
:1037D000692D742D832D922D0E94193A7901042FA1
:1037E000B52FF62FE72F182FD92EA0E00E94223AEE
:1037F00044F4E12CF12C00E0B0E0F0E0E0E010E077
:10380000D12C9701402F5B2F6F2F7E2F812F9D2D65
:103810002115310541055941610571058105910564
:1038200049F044F0E12CF12C00E0B9E1F0E0E0E0F7
:1038300010E0D12C9701402F5B2F6F2F7E2F812F0F
:103840009D2D0CE00E94F339A4E6B0E00E9475348F
:103850006B017C018AE0F694E794D794C7948A952B
:10386000D1F7C0929C03D0929D03E0929E03F09208
:103870009F038090980390909903A0909A03B09032
:103880009B03688D798D8A8D9B8D0E94143620E074
:1038900030E048EC52E40E943035EAA5FBA5608395
:1038A000718382839383C701B6010E94143620E09E
:1038B00030E048EC52E40E943035ACA5BDA56D93D4
:1038C0007D938D939C931397C501B4010E94143688
:1038D00020E030E048EC52E40E943035EEA5FFA530
:1038E0006083718382839383AF960FB6F894DEBFB3
:1038F0000FBECDBFDF91CF911F910F91FF90EF9041
:10390000DF90CF90BF90AF909F908F907F906F90FF
:103910005F904F903F902F900895309182032091B7
:103920008103932F990F990BAD88BE88CF88D9A0BA
:10393000EAA0FBA00CA11DA1492F592F692F792FB7
:10394000892F0E9471382D8B3E8B4F8B552E3B015A
:103950004C013091800320917F03932F990F990B95
:10396000AD84BE84CF84D888E988FA880B891C8905
:10397000492F592F692F792F892F0E94713801E122
:103980000E94DA39AD88BE88CF88D52C73018401B6
:103990000E94103A59016A017B01182F592E80E0CC
:1039A00090E0A0E1B0E02EA13FA148A559A5821B5F
:1039B000930BA40BB50B3C014D01990C6608762CBA
:1039C00043019C01AD01662D762D862D962D0FE1CC
:1039D0000E94DA3939014A01B62FA72FF82FE92FB3
:1039E00030917E0320917D03932F990F990B492FDE
:1039F000592F692F792F892F03E20E94DA39012F7D
:103A0000152D0E94103A59016A017B018C01930126
:103A1000A4016B2F7A2F8F2F9E2F0E94193AE5E376
:103A2000AE2EFCE0BF2EC12CD12CE12CF12C00E0FD
:103A300010E00E947138AC8CBD8CCE8CDF8CE8A07D
:103A4000F22C032D142D0E9405392D873E874F87B8
:103A5000588B698B7A8B8B8B9C8B0DE00E94F33992
:103A6000322E432E542E652E762E872E982E292EFA
:103A70003091880320918703932F990F990BA32CE2
:103A8000B42CC52CD62CE72CF82C092D122D492F3F
:103A9000592F692F792F892F0E9471380E94713810
:103AA00009E10E94F339AD84BE84CF84D888E988C7
:103AB000FA880B891C890E94103A19012A013B01DE
:103AC0004C013091860320918503932F990F990B18
:103AD000492F592F692F792F892F0E94713803E1BF
:103AE0000E94F33959016A017B018C019101A20105
:103AF000B301C4010E94103A08E00E94F339590151
:103B00006A017B01E82F192F3091840320918303F0
:103B1000932F990F990B492F592F692F792F892F9F
:103B200004E00E94DA390E2F0E94103A08E00E9449
:103B3000F339209398033093990340939A03509359
:103B40009B035ACDFF920F931F93CF93DF93C82F00
:103B500080916D03882361F1072F162F0E942C0896
:103B60006C2F88EC92E00E94DD1488EC92E00E94B9
:103B70000C1591E0811101C090E090936C0362E01C
:103B800080916D030E9468188091C1029091C202D9
:103B9000891B80930F01F12EC12FD02F90910F011F
:103BA0008C2F8F19891720F40E946D088993F6CF06
:103BB0008FE091E0DF91CF911F910F91FF900895D9
:103BC000FF920F931F93CF93DF93C82F80916D03C4
:103BD000882361F1072F162F0E942C086C2F88EC88
:103BE00092E00E94DD1488EC92E00E940C1591E0B6
:103BF000811101C090E090936C0362E080916D03AD
:103C00000E9468188091C1029091C202891B809322
:103C10000E01F12EC12FD02F90910E018C2F8F19F4
:103C2000891720F40E946D088993F6CF8EE091E009
:103C3000DF91CF911F910F91FF9008952091A603DE
:103C40003091A703C901079697FD079623E0959544
:103C500087952A95E1F72091A4033091A503829FCF
:103C6000A001839F500D929F500D112470E060E0E1
:103C70008091BD039091BE030C94723B2F923F92B2
:103C80004F925F926F927F928F929F92AF92BF926C
:103C9000CF92DF92EF92FF920F931F93CF93DF9318
:103CA000CDB7DEB728970FB6F894DEBF0FBECDBFF5
:103CB0001C0178876F8329013A01FE82ED82CA01D7
:103CC000B9010E942B35A60195010E94A5376B0111
:103CD0007C01B801110F880B990B0E94143669837F
:103CE0007A838B839C83C301B2010E9412384B01FB
:103CF0005C012D813E81B901330F880B990B0E9425
:103D000014362B013C01AC019B01C501B4010E949A
:103D1000A5370E94DC350F811885060F171FA301F8
:103D20009201C701B6010E94A5370E94DC3531011E
:103D3000660E771EA501940169817A818B819C8131
:103D40000E94A5370E94DC352F813885260F371F4A
:103D50003E832D8329813A814B815C81C701B60165
:103D60000E94A5370E94DC35620D731DEE24E3949A
:103D7000F12C93014D815E8180EA93E00E947411E1
:103D800028960FB6F894DEBF0FBECDBFDF91CF915E
:103D90001F910F91FF90EF90DF90CF90BF90AF9069
:103DA0009F908F907F906F905F904F903F902F905B
:103DB0000895FC0101900020E9F73197AF01481BFD
:103DC000590BBC0180EA93E00C94E4088F929F9217
:103DD000AF92BF920F931F93CF93DF93CDB7DEB710
:103DE000A1970FB6F894DEBF0FBECDBF19A2423027
:103DF00008F44AE08E010F5D1F4F842E912CB12CE8
:103E0000A12CA50194010E948834E62FB901CA01B2
:103E1000EA30F4F4E05DD801EE938D01232B242BDE
:103E2000252B79F790E080E0109719F0CD010E94E2
:103E3000D91EA1960FB6F894DEBF0FBECDBFDF919D
:103E4000CF911F910F91BF90AF909F908F90089549
:103E5000E95CE1CFCF92DF92EF92FF92CF93DF93B5
:103E60006C01990FEE08FF08F7FE19C06DE280EAB9
:103E700093E00E942710EC0166277727CB016C198D
:103E80007D098E099F094AE00E94E61E8C0F9D1F46
:103E9000DF91CF91FF90EF90DF90CF9008954AE0AF
:103EA000C701B601DF91CF91FF90EF90DF90CF90E7
:103EB0000C94E61E682F70E090E080E04AE00C94DD
:103EC000E61E0C94D91E4F925F926F927F928F9252
:103ED0009F92AF92BF92CF92DF92EF92FF920F9399
:103EE0001F93CF936B017C01742EAC019B010E9448
:103EF0001A38882399F08AE691E0CF911F910F91AB
:103F0000FF90EF90DF90CF90BF90AF909F908F90F9
:103F10007F906F905F904F900C94D91E460157018F
:103F2000E894B7F82FEF3FEF4FE75FE7C501B40123
:103F30000E941A3881110DC02FEF3FEF4FE75FE766
:103F4000C501B4010E94263518161CF48EE691E0D6
:103F5000D4CF2FEF3FEF4FE75FE4C701B6010E94D8
:103F60002A3718161CF482E791E0C7CF2FEF3FEFF6
:103F70004FE75FECC701B6010E94263587FDF3CFFE
:103F800020E030E0A901C701B6010E94263510E00B
:103F900000E087FF0AC06DE280EA93E00E942710EC
:103FA0008C01F7FAF094F7F8F094C0E060E070E06C
:103FB00080E09FE37C1641F020E030E040E251E4F5
:103FC0000E943035CF5FF6CFA70196010E94BA3428
:103FD0002B013C010E94E3354B015C014AE00E9449
:103FE000E61E7C01E00EF11ECC23B9F1C501B4013F
:103FF0000E9412369B01AC01C301B2010E94B93488
:104000004B015C0186E791E00E94D91EE80EF91E83
:10401000C15018F120E030E040E251E4C501B401A4
:104020000E94A5372B013C010E94E3354B01B12CC6
:10403000A12C4AE0C501B4010E94E61EE80EF91E5B
:10404000C501B4010E9412369B01AC01C301B2014B
:104050000E94B9344B015C01DBCFC701CF911F91A6
:104060000F91FF90EF90DF90CF90BF90AF909F9017
:104070008F907F906F905F904F9008953F924F92F6
:104080005F926F927F928F929F92AF92BF92CF92E8
:10409000DF92EF92FF920F931F93CF93DF93CDB7F1
:1040A000DEB72A970FB6F894DEBF0FBECDBF382E0D
:1040B0000E9436080E941E1E82EF9FE09093BA0372
:1040C0008093B90381E08093B4038093B50381E0CA
:1040D00090E09093B3038093B2039093B1038093E5
:1040E000B00386E290E09093AD038093AC0387E247
:1040F00090E09093AF038093AE031A8619860E94D6
:104100000E0A6B017C01209176023091770240917A
:1041100078025091790229833A834B835C838091A2
:10412000720290917302A0917402B09175028D8316
:104130009E83AF83B88780917102A985BA854D01AE
:10414000BB0FAA08BB08813009F0A2C0C501B401A9
:104150000E94143620E030E040E05DE30E94A53785
:104160002B013C01C701B60129813A814B815C8159
:10417000621B730B840B950B0E9412366B017C0142
:10418000A8EEB3E02D813E814F8158850E947534A1
:104190000E9412369B01AC01C701B6010E94303566
:1041A0009B01AC01C301B2010E94B93420E030E0B0
:1041B00040E252EC0E94A5370E94AA3520E030E090
:1041C00040E85FE30E94BA349B01AC0160E070E01C
:1041D00080E090E40E9430359B01AC010E94BA342B
:1041E00020E030E040EE51E40E94BA340E94DC3519
:1041F0002B01C501B4010E9414362BED3FE049ECC0
:1042000050E40E94A53720E030E040E05DE30E94EA
:10421000A5379B01AC01A12CB12C60ECC62E6FE33D
:10422000D62E72010AE110E060E270E080E490E0D6
:104230000E943E1E49855A854F5F5F4F5A874987C6
:104240004032510509F05BCF80917102823009F450
:1042500030C110F5882309F46EC1813009F443C0E0
:104260002A960FB6F894DEBF0FBECDBFDF91CF9177
:104270001F910F91FF90EF90DF90CF90BF90AF9084
:104280009F908F907F906F905F904F903F90089598
:1042900060E070E0CB01A0CF833009F448C18430E6
:1042A000F9F620917002822F6AE00E94513829139A
:1042B00004C08AE891E00E94611F809170020E9410
:1042C0005A1F88E791E00E94611F0E940E0A71FD4B
:1042D00046C18091AC039091AD034A969093AD0393
:1042E0008093AC03A0C08090720290907302A09063
:1042F0007402B09075020E940E0A2B013C0180915D
:10430000760290917702A0917802B0917902898328
:104310009A83AB83BC830E940E0A6D837E838F8356
:1043200098870E940E0A29813A814B815C81621B29
:10433000730B840B950B38EEC32E33E0D32EE12C98
:10434000F12CA70196010E94883482169306A406D8
:10435000B50608F481C0C301B20129813A814B81BD
:104360005C81621B730B840B950BA70196010E9465
:104370008834C501B401621B730B840B950B2CE3CD
:10438000422E512C612C712CA30192010E94883481
:10439000CA01B90124E630E040E050E00E948834D0
:1043A0007A8769876D817E818F81988529813A819D
:1043B0004B815C81621B730B840B950BA7019601EB
:1043C0000E948834C501B401621B730B840B950BEA
:1043D000A30192010E9488347B0189859A856AE055
:1043E00070E00E945D3849855A854817590721F4C5
:1043F0008AE891E00E94611F89859A850E942A1FA0
:1044000088E791E00E94611FC7016AE070E00E94A6
:104410005D38E816F90621F48AE891E00E94611FF0
:10442000C7010E942A1F2A960FB6F894DEBF0FBE5E
:10443000CDBFDF91CF911F910F91FF90EF90DF9053
:10444000CF90BF90AF909F908F907F906F905F9034
:104450004F903F900C941916311026C083E00E94B3
:104460003A099A878987892BC9F00E940E0A71FF41
:10447000F5CF61E085E00E94630962E070E080E0D2
:1044800090E00E94DC0960E085E00E94630962E040
:1044900070E080E090E00E94DC09E0CF82E0809351
:1044A0007102F12CE12C99CFF12CE12C1A8619869E
:1044B00094CF60916C0270916D0280916E02909128
:1044C0006F022CE330E040E050E00E9488346B0142
:1044D000CA01B90124E630E040E050E00E9488348F
:1044E0004B01DA82C982CB016AE070E00E945D383C
:1044F0008816990621F48AE891E00E94611FC401A0
:104500000E942A1F88E791E00E94611F89819A8199
:104510006AE070E00E945D38A981BA81A817B907E6
:1045200021F48AE891E00E94611FC6017ACF0E94BF
:104530000E0A71FF25C020917002822F6AE00E944E
:104540005138291304C08AE891E00E94611F8091CC
:1045500070020E945A1F88E791E00E94611F20911B
:104560001001822F6AE00E945138291304C08AE8A2
:1045700091E00E94611F809110010E945A1F53CF49
:104580008091AC039091AD034A969093AD038093D4
:10459000AC03E1CF0E946D3B2F923F924F925F920E
:1045A0006F927F928F929F92AF92BF92CF92DF9243
:1045B000EF92FF920F931F93CF93DF93CDB7DEB7A8
:1045C0002DB63EB680910D01823049F58091710281
:1045D000982F9D7FD9F483E0809371020FB6F894F1
:1045E0003EBE0FBE2DBEDF91CF911F910F91FF9068
:1045F000EF90DF90CF90BF90AF909F908F907F9083
:104600006F905F904F903F902F900895833011F4FA
:1046100084E0E2CF843011F710927102DFCF833053
:1046200009F0CDC04DB65EB68DB79EB780970FB678
:10463000F8949EBF0FBE8DBF0DB71EB70F5F1F4F03
:10464000F80190E080E0819391930196803191058B
:10465000D1F74AE0C42ED12C50E1652E712C88246C
:104660008A946FE7962E5801F12CE12C0E94293490
:104670009C01B3016E197F09C4010E945D386F5F10
:104680007F4FC9010E945D38FB01EE0DFF1DEE0F4B
:10469000FF1FE00FF11F80819181D5012D913C9189
:1046A00031832083F501819391935F01FFEFEF1A2E
:1046B000FF0A8FE0E816F104C9F691E0C91AD108A3
:1046C00091F6D801ED90FC906701CC0CDD1CF60151
:1046D000E85BFD4F6591749189E091E00E94393467
:1046E000C6018E0D9F1DFC01E85EFD4FE491F0E0D8
:1046F000F0936102E0936002FC01E75EFD4FE491FC
:10470000F0E0F0935F02E0935E02FC01E65EFD4F95
:10471000E491F801E280F3806701CC0CDD1CF60126
:10472000E85BFD4F6591749185E091E00E9439341A
:10473000C6018E0D9F1DFC01E85EFD4FE491F0E087
:10474000F0935D02E0935C02FC01E75EFD4FE491B3
:10475000F0E0F0935B02E0935A02FC01E65EFD4F4D
:10476000E491D8011496ED90FC908701000F111F81
:10477000F801E85BFD4F6591749181E091E00E9442
:1047800039340E0D1F1DF801E85EFD4FE491F0E095
:10479000F0935902E0935802F801E75EFD4FE4916F
:1047A000F0E0F0935702E0935602F801E65EFD4F09
:1047B000E4910FB6F8945EBE0FBE4DBE0FCF8430AD
:1047C00009F00CCF10926A0209CFFF920F931F934A
:1047D000CF93DF93EC01F62E08811981C8010E9466
:1047E0004034F81621F06F2DC8010E944834CE01E4
:1047F000DF91CF911F910F91FF9008951F920F921B
:104800000FB60F9211242F933F938F939F93AF93E3
:10481000BF9380914C0290914D02A0914E02B091B5
:104820004F0230914B0223E0230F2D3758F50196AC
:10483000A11DB11D20934B0280934C0290934D0219
:10484000A0934E02B0934F0280915002909151027A
:10485000A0915202B09153020196A11DB11D809307
:10486000500290935102A0935202B0935302BF9111
:10487000AF919F918F913F912F910F900FBE0F900D
:104880001F90189526E8230F0296A11DB11DD2CFC7
:104890001F920F920FB60F9211242F933F934F93B5
:1048A0005F936F937F938F939F93AF93BF93EF9398
:1048B000FF9380914A0281110CC0E0915402F09163
:1048C0005502309731F081E080934A0209951092A9
:1048D0004A02FF91EF91BF91AF919F918F917F918C
:1048E0006F915F914F913F912F910F900FBE0F905D
:1048F0001F9018951F920F920FB60F9211242F93AD
:104900003F934F935F936F937F938F939F93AF9357
:10491000BF93EF93FF938091B900887F803609F4AD
:104920004AC0F0F5883209F4A5C018F5803109F4C1
:1049300099C0B8F4882309F4F5C0883009F492C00E
:10494000FF91EF91BF91AF919F918F917F916F9167
:104950005F914F913F912F910F900FBE0F901F903D
:104960001895883109F486C0803251F780939D02F2
:1049700014C0803409F49BC040F48033B9F3883309
:10498000F9F680939D0285ECAEC0803509F483C0B2
:10499000883509F494C0883499F60E947014D0CFF9
:1049A000883909F48AC038F5883729F050F48836F8
:1049B00011F0803729F683E08093C00210924902FB
:1049C00055C0883809F479C0803919F0803809F069
:1049D000B7CF80914902803208F06FC0E091490260
:1049E00081E08E0F809349028091BB00F0E0E75D8B
:1049F000FD4F80833BC0803B39F0D0F4803A09F40E
:104A000077C0883A09F09CCF84E08093C00210926E
:104A1000280210922702F0E0E0E009958091270239
:104A200081110FC081E0809327021092070209C014
:104A3000803C09F4A8CF883C09F4A5CF883B09F055
:104A40007FCFE091280281E08E0F80932802F0E072
:104A5000E95FFD4F80818093BB0090912802809197
:104A6000270229C080919A028093BB0085EC809335
:104A7000BC0066CF90919C0280919B02981758F5DC
:104A8000E0919C0281E08E0F80939C02F0E0E6585A
:104A9000FD4F8081E9CFE0919C0281E08E0F8093F1
:104AA0009C028091BB00F0E0E658FD4F808390911E
:104AB0009C0280919B029817C8F285E8D8CFE091BC
:104AC0009C0281E08E0F80939C028091BB00F0E0FD
:104AD000E658FD4F80838091BF0281115ECF81E057
:104AE0008093BE0284EA8093BC001092C00228CF5B
:104AF00085EC8093BC001092C00280914902803204
:104B000030F4E0914902F0E0E75DFD4F10826091E2
:104B1000490270E089E292E0F0E0E0E0099510924D
:104B200049020ECF10929D0238CFCF93DF93EC0154
:104B30008AE090E0A0E0B0E088839983AA83BB83F9
:104B400082E390E0A0E0B0E08C839D83AE83BF83DE
:104B50008CE291E0A0E0B0E088879987AA87BB87C4
:104B60008AEF90E0A0E0B0E08C879D87AE87BF879A
:104B70006CA31DA21AAA19AA1CAA1BAA1EAA1DAAC6
:104B800018AE1FAA1AAE19AE1CAE1BAE1EAE1DAEDD
:104B9000FE01FF96118210823296118210823296A7
:104BA0001182108270E0FB01E252F04F24916653B3
:104BB000704FFB0184918823C9F090E0880F991F02
:104BC000FC01E054F04F45915491FC01EA54F04F40
:104BD000A591B4919FB7F894FA013081822F809506
:104BE00083238083EC912E2B2C939FBF0E940E0A6F
:104BF0006C8B7D8B8E8B9F8B8CA10E943A0921E060
:104C0000892B09F420E02AA781E088ABCE01DF914F
:104C1000CF910C94240AA8ECB2E013961C921E9239
:104C2000129748EE53E060E070E014964D935D9368
:104C30006D937C93179786E391E011969C938E93E6
:104C4000E0EAF3E01382128220E830E03583248327
:104C500080E490E0978386833187208793878287DB
:104C6000168A158614861786168681E0858B848BB6
:104C70002FEF3FEF338B228B318B208B878B108E66
:104C8000128E118EB48FA38F168E158E80EA96E841
:104C9000A1E0B0E082A393A3A4A3B5A386A397A3A6
:104CA000A0A7B1A786E491E091838083ECE6F3E0CE
:104CB0001082118214828FEF83A362E089E193E076
:104CC0000E94952563E084ED92E00C949525CF93A6
:104CD000DF93CDB7DEB7C754D1090FB6F894DEBF66
:104CE0000FBECDBF789484B5826084BD84B58160E9
:104CF00084BD85B5826085BD85B5816085BD8091A7
:104D00006E00816080936E0010928100809181001E
:104D10008260809381008091810081608093810016
:104D2000809180008160809380008091B1008460D8
:104D30008093B1008091B00081608093B000809139
:104D40007A00846080937A0080917A0082608093F8
:104D50007A0080917A00816080937A0080917A0055
:104D6000806880937A001092C100E3EEFFE0249106
:104D7000EFECFFE08491882399F090E0880F991F71
:104D8000FC01E054F04FA591B491FC01EA54F04FBE
:104D9000859194918FB7F894EC912E2B2C938FBF23
:104DA0001092B1001092B0001092B2008091B60043
:104DB0008F7D8093B6008CE78093B30082E0809370
:104DC000B00083E08093B1008EE89BE090935502A1
:104DD00080935402809170008260809370008AEC0E
:104DE00098E090935303809352038AE891E0909364
:104DF0005D0380935C0327ED38E0309351032093EB
:104E0000500390935B0380935A032FE037E1309374
:104E10000E0320930D0390931803809317032CEC3B
:104E200032E230930C0320930B039093160380938C
:104E3000150320E037E130930A0320930903909390
:104E40001403809313032FE937E130930603209373
:104E500005039093100380930F037AE0E72EF12C63
:104E600008E40E9491090093B80010926D038091AC
:104E70006D038F3708F014C20E942C0888EC92E072
:104E80000E940C15182F811105C280ED0E94AD18EB
:104E9000803609F0FFC161E773E088E80E94E01DF9
:104EA00065E773E08AE80E94A21D67E773E08CE87B
:104EB0000E94A21D63E773E08EE80E94E01D69E78F
:104EC00073E080E90E94A21D6BE773E082E90E9413
:104ED000A21D6DE773E084E90E94A21D6FE773E0F5
:104EE00086E90E94A21D61E873E088E90E94A21D84
:104EF00063E873E08AE90E94A21D65E873E08CE92B
:104F00000E94A21D67E873E08EE90E94A21D6EE672
:104F100073E081EA0E946F1869E873E081EE0E94F5
:104F2000A21D6BE773E083EE0E94A21DBE016F5FBE
:104F30007F4F84EE0E946F18898120E1829FC0011B
:104F4000112490938C0380938B03BE016F5F7F4F7E
:104F500085EE0E946F1829812F7080918B039091AC
:104F60008C03822B90938C0380938B03BE016F5F25
:104F70007F4F87EE0E946F18898130E1839FC001C7
:104F8000112490938E0380938D03BE016F5F7F4F3A
:104F900085EE0E946F18898190E064E09595879571
:104FA0006A95E1F720918D0330918E03822B932B2C
:104FB00090938E0380938D0380916D03882361F11C
:104FC0000E942C0867EE88EC92E00E94DD1488ECC9
:104FD00092E00E940C1591E0811101C090E0909345
:104FE0006C0361E080916D030E9468188091C1029A
:104FF0009091C202891B8093000150E7E52E53E097
:10500000F52E80910001181738F40E946D08D70121
:105010008D937D011F5FF5CF86EE0E94AD18182F8E
:1050200085EE0E94AD18B0E11B9F9001112490E025
:1050300044E0959587954A95E1F7822B932B9093C1
:105040008E0380938D0387EE0E94AD1880937003CA
:1050500083E00E94BC1880E00E94DD1881E00E947D
:10506000DD1882E00E94DD1885EF0E94AD18837E76
:1050700080618983BE016F5F7F4F85EF0E94C715F6
:1050800085EF0E94AD188F71806A8983BE016F5FC2
:105090007F4F85EF0E94C7150E9491098091BD0343
:1050A0009091BE03892B09F409C10E941E1E8091B4
:1050B000A6039091A7037C01F0E4EF1AF108F7FE34
:1050C00004C07C012FE3E21AF108F594E794009103
:1050D000A4031091A5030058110917FF02C00F5F28
:1050E0001F4F15950795B12CA12C912CD12CC12CBB
:1050F000C60187709927990C892B59F4F601B3E002
:10510000F595E795BA95E1F7EA0DFB1DE855F84FDF
:10511000949097FE0AC021E030E0A701B8016C0D21
:105120007D1D80EA93E00E94E8125FEFC51AD50A60
:1051300080E8C816D104E1F69FEFE91AF90AA0E168
:10514000AA0EB11CA114B4E0BB0681F682E08093E4
:10515000C0038091BB039091BC03892B29F08CE3A1
:105160008093BF030E9491092091C2033091C30331
:105170004091C4035091C50360E074E284EF90E075
:105180000E948834205131094109510956954795AB
:10519000379527952093B80064E084EA97E00E9451
:1051A00069156091A603615080EA93E00E94EC15B6
:1051B00064E080EA97E00E9469158091C00360E195
:1051C000813009F064E180EA93E00E94EC1564E02C
:1051D0008CE997E00E9469158FE88093CA0380915B
:1051E000A4039091A5038038910509F0CFC0809168
:1051F000A6039091A7038034910509F0D7C0809150
:10520000C003813009F0C0C08FE98093CA0312E166
:105210006AED80EA93E00E94EC15612F80EA93E04A
:105220000E94EC1561E880EA93E00E94EC15609121
:10523000CA0380EA93E00E94EC1569ED80EA93E0EE
:105240000E94EC158091C00362E2813009F061EFA9
:1052500080EA93E00E94EC1566E086E997E00E9400
:1052600069152091C6033091C7034091C80350913E
:10527000C90360E074E284EF90E00E94883420511A
:10528000310941095109569547953795279520933E
:10529000B80036C080916D038F5F80936D03E7CDBA
:1052A00010926D0368EE73E080E090E00E94DC09EC
:1052B000E1E0EE1AF10809F0D4CDCACE2091A603A0
:1052C0003091A703C901079697FD079613E09595BE
:1052D00087951A95E1F72091A4033091A503AC01BD
:1052E000429FC001439F900D529F900D11240E9438
:1052F000483A9093BE038093BD03892B09F0D5CE25
:1053000060ED77E080E090E00E94DC09809171021E
:10531000813039F50E940E0A0091760210917702D1
:105320002091780230917902601B710B820B930BF4
:1053300028EE33E040E050E00E9488348091720211
:1053400090917302A0917402B09175028217930735
:10535000A407B50730F481E00E943E2080E00E945F
:105360003E2080910D01823009F48EC418F5882307
:1053700009F45CC1813009F479C280E090E0892BA6
:1053800029F20E940000C2CF8FEC3FCF80369105FA
:1053900069F48091A6039091A703409739F4809116
:1053A000C003813029F480E18093CA0312E030CF3A
:1053B0008FEAFACF843009F4BBC608F46DC4853097
:1053C000E1F60E9436080E941E1E0E94FB17C09044
:1053D0006003D12C0E94FB17A0905F03B12C0E94A8
:1053E000FB1780905E03912C0E94FB17E0906103F5
:1053F000F12C0E94FB170091630310E00E94FB1741
:1054000060906403709065030E94FB1740916203F3
:105410002AE030E0C401B9010E945D386FA388A77B
:10542000C501B9010E945D3869A78AA7C601B90103
:105430000E945D386BA78CA7C701B9010E945D3837
:105440006DA78EA7C801B9010E945D386FA788AB10
:10545000C301B9010E945D38E82FCB01B9010E9458
:105460005D3889ABEAAB4BAB8DEE9FEEADECBBEAA2
:105470008DAB9EABAFABB8AF90E080E00E94403404
:10548000898381E090E00E9440348A8382E090E04A
:105490000E9440348B8383E090E00E9440348C83F0
:1054A00089819A81AB81BC818D3E9F4EAD4CBB4AB8
:1054B00009F0DFC78AE090E00E9440348CAB809115
:1054C0006B02882311F40C9459324091C702642E68
:1054D000712CE7E2F0E0EC0FFD1FE60DF71D808177
:1054E00090E001963AE0A32EB12C4D3019F448E13A
:1054F000A42EB12CE7E2F0E0EC0FFD1FE60DF71D46
:10550000B5010E945D38808395E6892E912C2AE0B2
:10551000F22EE7E2F0E0EC0FFD1F6E0E7F1E2FA1D2
:1055200026962FAF2697D8A4C9A4EAA43DA527960E
:105530003FAF27974EA59FA528A909A90F9D8001D8
:1055400011240053184F8AA9080F111D3BA9289652
:105550003FAF28978CE0EEE1F1E0DE01119601907B
:105560000D928A95E1F7B801615071096F377C405F
:1055700008F04DC030E09F9D200D311D1124C90160
:1055800001970C9708F043C0C80183709927892BB5
:1055900041F4C80164E670E00E945D3851E0892B57
:1055A00049F4C80160E971E00E945D3851E0892B3F
:1055B00009F050E0842F90E027964FAD27974F9D3C
:1055C000800D911D1124545E5A832C0F3D1FD9016B
:1055D0002C9128171906DCF0892BC9F028962FADDD
:1055E00028972730A0F48D2D90E026963FAD269782
:1055F0003F9D800D911D112448974CF48E2D90E015
:10560000CF9C800D911D1124CC970CF452C741E022
:10561000841A910809F44DC7D3018C9190E001964A
:10562000B5010E945D38F301808379CF0E9436086E
:105630000E941E1E912C812C08E110E080FE02C009
:105640000CE110E0B401092C000C880B990B0E94AE
:10565000143620E030E040EC51E40E9430352BED70
:105660003FE049EC50E40E94A5379B01AC01A12C1E
:10567000B12C70E8C72E7FE3D72EEEE1EE2EF12C91
:1056800060E270E082E290E00E943E1EEFEF8E1A30
:105690009E0AF8E18F16910479F60E94FB1760903C
:1056A0006003712C0E94FB1760915F03062F10E0CE
:1056B0000E94FB1780905E03912C62E070E082E212
:1056C00090E00E94EF12B801110F880B990B0E9415
:1056D00014362BED3FE049EC50E40E94A53720E062
:1056E00030E040E752E40E9430352BED3FE049ECDA
:1056F0005FE30E94B9349B01AC0103E010E060E27B
:1057000070E082E290E00E943E1EB401990C880B8A
:10571000990B0E9414362BED3FE049EC50E40E94B7
:10572000A53720E030E040E752E40E9430352BED11
:105730003FE049EC5FE30E94B9349B01AC019FE07C
:10574000E92EF12C60E270E082E290E00E943E1EC1
:10575000AE014F5F5F4FBE01695D7F4FCE01C596C1
:105760000E9438191092BA031092B90381E0809315
:10577000B4038093B50381E090E09093B3038093EA
:10578000B2039093B1038093B0030AE410E0109346
:10579000AD030093AC038AE090E09093AF03809355
:1057A000AE036DA97EA98FA998AD42E00E94631F48
:1057B0008AE791E00E94611F1093AD030093AC0350
:1057C0008EE190E09093AF038093AE036FA178A534
:1057D00089A59AA542E00E94631F8DE791E00E948F
:1057E000611F1093AD030093AC0382E390E09093AC
:1057F000AF038093AE0369817A818B819C810E9483
:10580000DC35CB010E942A1F80E891E00E94611FD5
:10581000B301770C880B990B0E9414362BED3FE0F7
:1058200049EC50E40E94A53720E030E040E752E424
:105830000E9430352BED3FE049EC5FE30E94B93424
:105840009B01AC0166E0E62EF12C10E000E06AE27C
:1058500070E082E290E00E943E1E0E94191664E60B
:1058600070E080E090E00E94DC0987CD0E9436085D
:105870000E941E1E82EF9FE09093BA038093B903AB
:1058800082E08093B4038093B50381E090E090932D
:10589000B3038093B2039093B1038093B00389E084
:1058A00090E09093AD038093AC0388E290E09093F6
:1058B000AF038093AE030E94FB17E0906003F12CCE
:1058C0000E94FB1700915F0310E00E94FB17C0903D
:1058D0005E03D12C2AE0C216D10424F48AE891E0B8
:1058E0000E94611FC6010E942A1F88E791E00E9462
:1058F000611F0A30110524F48AE891E00E94611FBB
:10590000C8010E942A1FAE01495D5F4FBE016B5C5A
:105910007F4FCE01C9960E9438198091B9039091AA
:10592000BA03892B49F08091AE039091AF0306979B
:105930009093AF038093AE031092BA031092B90311
:1059400081E08093B4038093B50386E2E0ECF1E05C
:10595000DE01119601900D928A95E1F72AE030E080
:10596000C701B9010E945D38CB01B9010E945D38C1
:10597000805D803309F43CC189830AE010E0C701EF
:10598000B8010E945D38805D8A83C9ACDAACEBACAB
:10599000FCACC701B6010E94DC359B01CB01B8010C
:1059A0000E945D38CB01B8010E945D38805D803374
:1059B00009F420C18F830AE010E0C901B8010E94F8
:1059C0005D38805D888720E030E040E251E4C70127
:1059D000B6010E94A5374B015C0120E030E0A9012F
:1059E0000E942A3718160CF007C1C501B4010E94A5
:1059F000DC35CB01B8010E945D38805D8A8720E0EC
:105A000030E048EC52E4C701B6010E94A5376B01B3
:105A10007C0120E030E0A9010E942A3718160CF022
:105A2000EFC0C701B6010E94DC35CB016AE070E02F
:105A30000E945D38805D8B878DA89EA8AFA8B8AC0A
:105A4000C501B4010E94DC359B01EAE0F0E0CB0126
:105A5000BF010E945D38CB01BF010E945D38805DAF
:105A6000803309F4D1C0888B0AE010E0C901B80185
:105A70000E945D38805D898B20E030E040E251E497
:105A8000C501B4010E94A5376B017C0120E030E024
:105A9000A9010E942A3718160CF0B8C0C701B60138
:105AA0000E94DC35CB01B8010E945D38805D8B8B94
:105AB00020E030E048EC52E4C501B4010E94A53773
:105AC0006B017C0120E030E0A9010E942A37181602
:105AD0000CF0A0C0C701B6010E94DC35CB016AE022
